{
  "contractName": "BovineTracking",
  "abi": [
    {
      "inputs": [
        {
          "internalType": "uint256",
          "name": "",
          "type": "uint256"
        },
        {
          "internalType": "uint256",
          "name": "",
          "type": "uint256"
        }
      ],
      "name": "bovineAbattoirProcessDates",
      "outputs": [
        {
          "internalType": "uint256",
          "name": "",
          "type": "uint256"
        }
      ],
      "stateMutability": "view",
      "type": "function",
      "constant": true
    },
    {
      "inputs": [
        {
          "internalType": "uint256",
          "name": "",
          "type": "uint256"
        },
        {
          "internalType": "uint256",
          "name": "",
          "type": "uint256"
        }
      ],
      "name": "bovineFeedDates",
      "outputs": [
        {
          "internalType": "uint256",
          "name": "",
          "type": "uint256"
        }
      ],
      "stateMutability": "view",
      "type": "function",
      "constant": true
    },
    {
      "inputs": [
        {
          "internalType": "uint256",
          "name": "",
          "type": "uint256"
        },
        {
          "internalType": "uint256",
          "name": "",
          "type": "uint256"
        }
      ],
      "name": "bovineHealthExamDates",
      "outputs": [
        {
          "internalType": "uint256",
          "name": "",
          "type": "uint256"
        }
      ],
      "stateMutability": "view",
      "type": "function",
      "constant": true
    },
    {
      "inputs": [
        {
          "internalType": "string",
          "name": "",
          "type": "string"
        }
      ],
      "name": "bovineIdByName",
      "outputs": [
        {
          "internalType": "uint256",
          "name": "",
          "type": "uint256"
        }
      ],
      "stateMutability": "view",
      "type": "function",
      "constant": true
    },
    {
      "inputs": [
        {
          "internalType": "string",
          "name": "",
          "type": "string"
        },
        {
          "internalType": "uint256",
          "name": "",
          "type": "uint256"
        }
      ],
      "name": "bovineIdsByBreed",
      "outputs": [
        {
          "internalType": "uint256",
          "name": "",
          "type": "uint256"
        }
      ],
      "stateMutability": "view",
      "type": "function",
      "constant": true
    },
    {
      "inputs": [
        {
          "internalType": "string",
          "name": "",
          "type": "string"
        },
        {
          "internalType": "uint256",
          "name": "",
          "type": "uint256"
        }
      ],
      "name": "bovineIdsByLocation",
      "outputs": [
        {
          "internalType": "uint256",
          "name": "",
          "type": "uint256"
        }
      ],
      "stateMutability": "view",
      "type": "function",
      "constant": true
    },
    {
      "inputs": [
        {
          "internalType": "uint256",
          "name": "",
          "type": "uint256"
        },
        {
          "internalType": "uint256",
          "name": "",
          "type": "uint256"
        }
      ],
      "name": "bovineMovementDates",
      "outputs": [
        {
          "internalType": "uint256",
          "name": "",
          "type": "uint256"
        }
      ],
      "stateMutability": "view",
      "type": "function",
      "constant": true
    },
    {
      "inputs": [
        {
          "internalType": "uint256",
          "name": "",
          "type": "uint256"
        },
        {
          "internalType": "uint256",
          "name": "",
          "type": "uint256"
        }
      ],
      "name": "bovineVaccineDates",
      "outputs": [
        {
          "internalType": "uint256",
          "name": "",
          "type": "uint256"
        }
      ],
      "stateMutability": "view",
      "type": "function",
      "constant": true
    },
    {
      "inputs": [
        {
          "internalType": "uint256",
          "name": "",
          "type": "uint256"
        }
      ],
      "name": "bovinesById",
      "outputs": [
        {
          "internalType": "uint256",
          "name": "id",
          "type": "uint256"
        },
        {
          "internalType": "string",
          "name": "name",
          "type": "string"
        },
        {
          "internalType": "uint256",
          "name": "age",
          "type": "uint256"
        },
        {
          "internalType": "string",
          "name": "breed",
          "type": "string"
        },
        {
          "internalType": "string",
          "name": "location",
          "type": "string"
        }
      ],
      "stateMutability": "view",
      "type": "function",
      "constant": true
    },
    {
      "inputs": [],
      "name": "totalBovines",
      "outputs": [
        {
          "internalType": "uint256",
          "name": "",
          "type": "uint256"
        }
      ],
      "stateMutability": "view",
      "type": "function",
      "constant": true
    },
    {
      "inputs": [
        {
          "internalType": "string",
          "name": "_name",
          "type": "string"
        },
        {
          "internalType": "uint256",
          "name": "_age",
          "type": "uint256"
        },
        {
          "internalType": "string",
          "name": "_breed",
          "type": "string"
        },
        {
          "internalType": "string",
          "name": "_location",
          "type": "string"
        }
      ],
      "name": "addBovine",
      "outputs": [],
      "stateMutability": "nonpayable",
      "type": "function"
    },
    {
      "inputs": [
        {
          "internalType": "uint256",
          "name": "_bovineId",
          "type": "uint256"
        },
        {
          "internalType": "string",
          "name": "_name",
          "type": "string"
        },
        {
          "internalType": "uint256",
          "name": "_date",
          "type": "uint256"
        }
      ],
      "name": "addVaccine",
      "outputs": [],
      "stateMutability": "nonpayable",
      "type": "function"
    },
    {
      "inputs": [
        {
          "internalType": "uint256",
          "name": "_bovineId",
          "type": "uint256"
        },
        {
          "internalType": "string",
          "name": "_fromLocation",
          "type": "string"
        },
        {
          "internalType": "string",
          "name": "_toLocation",
          "type": "string"
        },
        {
          "internalType": "uint256",
          "name": "_date",
          "type": "uint256"
        }
      ],
      "name": "addMovement",
      "outputs": [],
      "stateMutability": "nonpayable",
      "type": "function"
    },
    {
      "inputs": [
        {
          "internalType": "uint256",
          "name": "_bovineId",
          "type": "uint256"
        },
        {
          "internalType": "string",
          "name": "_foodType",
          "type": "string"
        },
        {
          "internalType": "string",
          "name": "_origin",
          "type": "string"
        },
        {
          "internalType": "uint256",
          "name": "_quantity",
          "type": "uint256"
        },
        {
          "internalType": "uint256",
          "name": "_date",
          "type": "uint256"
        }
      ],
      "name": "addFeed",
      "outputs": [],
      "stateMutability": "nonpayable",
      "type": "function"
    },
    {
      "inputs": [
        {
          "internalType": "uint256",
          "name": "_bovineId",
          "type": "uint256"
        },
        {
          "internalType": "string",
          "name": "_examType",
          "type": "string"
        },
        {
          "internalType": "string",
          "name": "_result",
          "type": "string"
        },
        {
          "internalType": "uint256",
          "name": "_date",
          "type": "uint256"
        }
      ],
      "name": "addHealthExam",
      "outputs": [],
      "stateMutability": "nonpayable",
      "type": "function"
    },
    {
      "inputs": [
        {
          "internalType": "uint256",
          "name": "_bovineId",
          "type": "uint256"
        },
        {
          "internalType": "string",
          "name": "_abattoir",
          "type": "string"
        },
        {
          "internalType": "uint256",
          "name": "_abattoirDate",
          "type": "uint256"
        },
        {
          "internalType": "string",
          "name": "_processing",
          "type": "string"
        },
        {
          "internalType": "uint256",
          "name": "_date",
          "type": "uint256"
        }
      ],
      "name": "addAbattoirProcess",
      "outputs": [],
      "stateMutability": "nonpayable",
      "type": "function"
    },
    {
      "inputs": [
        {
          "internalType": "uint256",
          "name": "_bovineId",
          "type": "uint256"
        }
      ],
      "name": "getBovineById",
      "outputs": [
        {
          "internalType": "uint256",
          "name": "",
          "type": "uint256"
        },
        {
          "internalType": "string",
          "name": "",
          "type": "string"
        },
        {
          "internalType": "uint256",
          "name": "",
          "type": "uint256"
        },
        {
          "internalType": "string",
          "name": "",
          "type": "string"
        },
        {
          "internalType": "string",
          "name": "",
          "type": "string"
        },
        {
          "components": [
            {
              "internalType": "string",
              "name": "name",
              "type": "string"
            },
            {
              "internalType": "uint256",
              "name": "date",
              "type": "uint256"
            }
          ],
          "internalType": "struct BovineTracking.Vaccine[]",
          "name": "",
          "type": "tuple[]"
        }
      ],
      "stateMutability": "view",
      "type": "function",
      "constant": true
    },
    {
      "inputs": [
        {
          "internalType": "string",
          "name": "_name",
          "type": "string"
        }
      ],
      "name": "getBovineByName",
      "outputs": [
        {
          "internalType": "uint256",
          "name": "",
          "type": "uint256"
        },
        {
          "internalType": "string",
          "name": "",
          "type": "string"
        },
        {
          "internalType": "uint256",
          "name": "",
          "type": "uint256"
        },
        {
          "internalType": "string",
          "name": "",
          "type": "string"
        },
        {
          "internalType": "string",
          "name": "",
          "type": "string"
        },
        {
          "components": [
            {
              "internalType": "string",
              "name": "name",
              "type": "string"
            },
            {
              "internalType": "uint256",
              "name": "date",
              "type": "uint256"
            }
          ],
          "internalType": "struct BovineTracking.Vaccine[]",
          "name": "",
          "type": "tuple[]"
        }
      ],
      "stateMutability": "view",
      "type": "function",
      "constant": true
    },
    {
      "inputs": [
        {
          "internalType": "uint256",
          "name": "_date",
          "type": "uint256"
        }
      ],
      "name": "getBovinesByDate",
      "outputs": [
        {
          "internalType": "uint256[]",
          "name": "",
          "type": "uint256[]"
        }
      ],
      "stateMutability": "view",
      "type": "function",
      "constant": true
    },
    {
      "inputs": [
        {
          "internalType": "string",
          "name": "_breed",
          "type": "string"
        }
      ],
      "name": "getBovinesByBreed",
      "outputs": [
        {
          "internalType": "uint256[]",
          "name": "",
          "type": "uint256[]"
        }
      ],
      "stateMutability": "view",
      "type": "function",
      "constant": true
    },
    {
      "inputs": [
        {
          "internalType": "string",
          "name": "_location",
          "type": "string"
        }
      ],
      "name": "getBovinesByLocation",
      "outputs": [
        {
          "internalType": "uint256[]",
          "name": "",
          "type": "uint256[]"
        }
      ],
      "stateMutability": "view",
      "type": "function",
      "constant": true
    },
    {
      "inputs": [],
      "name": "getTotalBovineCount",
      "outputs": [
        {
          "internalType": "uint256",
          "name": "",
          "type": "uint256"
        }
      ],
      "stateMutability": "view",
      "type": "function",
      "constant": true
    },
    {
      "inputs": [
        {
          "internalType": "uint256",
          "name": "_bovineId",
          "type": "uint256"
        }
      ],
      "name": "getVaccines",
      "outputs": [
        {
          "components": [
            {
              "internalType": "string",
              "name": "name",
              "type": "string"
            },
            {
              "internalType": "uint256",
              "name": "date",
              "type": "uint256"
            }
          ],
          "internalType": "struct BovineTracking.Vaccine[]",
          "name": "",
          "type": "tuple[]"
        }
      ],
      "stateMutability": "view",
      "type": "function",
      "constant": true
    },
    {
      "inputs": [
        {
          "internalType": "uint256",
          "name": "id",
          "type": "uint256"
        }
      ],
      "name": "getBovine",
      "outputs": [
        {
          "components": [
            {
              "internalType": "uint256",
              "name": "id",
              "type": "uint256"
            },
            {
              "internalType": "string",
              "name": "name",
              "type": "string"
            },
            {
              "internalType": "uint256",
              "name": "age",
              "type": "uint256"
            },
            {
              "internalType": "string",
              "name": "breed",
              "type": "string"
            },
            {
              "internalType": "string",
              "name": "location",
              "type": "string"
            },
            {
              "components": [
                {
                  "internalType": "string",
                  "name": "name",
                  "type": "string"
                },
                {
                  "internalType": "uint256",
                  "name": "date",
                  "type": "uint256"
                }
              ],
              "internalType": "struct BovineTracking.Vaccine[]",
              "name": "vaccines",
              "type": "tuple[]"
            },
            {
              "components": [
                {
                  "internalType": "string",
                  "name": "fromLocation",
                  "type": "string"
                },
                {
                  "internalType": "string",
                  "name": "toLocation",
                  "type": "string"
                },
                {
                  "internalType": "uint256",
                  "name": "date",
                  "type": "uint256"
                }
              ],
              "internalType": "struct BovineTracking.Movement[]",
              "name": "movements",
              "type": "tuple[]"
            },
            {
              "components": [
                {
                  "internalType": "string",
                  "name": "foodType",
                  "type": "string"
                },
                {
                  "internalType": "string",
                  "name": "origin",
                  "type": "string"
                },
                {
                  "internalType": "uint256",
                  "name": "quantity",
                  "type": "uint256"
                },
                {
                  "internalType": "uint256",
                  "name": "date",
                  "type": "uint256"
                }
              ],
              "internalType": "struct BovineTracking.Feed[]",
              "name": "feeds",
              "type": "tuple[]"
            },
            {
              "components": [
                {
                  "internalType": "string",
                  "name": "examType",
                  "type": "string"
                },
                {
                  "internalType": "string",
                  "name": "result",
                  "type": "string"
                },
                {
                  "internalType": "uint256",
                  "name": "date",
                  "type": "uint256"
                }
              ],
              "internalType": "struct BovineTracking.HealthExam[]",
              "name": "healthExams",
              "type": "tuple[]"
            },
            {
              "components": [
                {
                  "internalType": "string",
                  "name": "abattoir",
                  "type": "string"
                },
                {
                  "internalType": "uint256",
                  "name": "abattoirDate",
                  "type": "uint256"
                },
                {
                  "internalType": "string",
                  "name": "processing",
                  "type": "string"
                },
                {
                  "internalType": "uint256",
                  "name": "date",
                  "type": "uint256"
                }
              ],
              "internalType": "struct BovineTracking.AbattoirProcess[]",
              "name": "abattoirProcesses",
              "type": "tuple[]"
            }
          ],
          "internalType": "struct BovineTracking.Bovine",
          "name": "",
          "type": "tuple"
        }
      ],
      "stateMutability": "view",
      "type": "function",
      "constant": true
    }
  ],
  "bytecode": "0x608060405234801561001057600080fd5b506131f1806100206000396000f3fe608060405234801561001057600080fd5b50600436106101b5576000357c0100000000000000000000000000000000000000000000000000000000900480639fad6f2311610100578063ea0aa0aa116100a9578063f5386e4e11610083578063f5386e4e146103b5578063f6309e66146103c8578063fd4ad9a1146103db57600080fd5b8063ea0aa0aa1461037c578063eea939161461038f578063ef76d755146103a257600080fd5b8063b0536a71116100da578063b0536a7114610332578063b3ddfdba14610345578063c8e1dd3d1461035857600080fd5b80639fad6f23146102ec578063a3084195146102ff578063a8aeabcc1461031f57600080fd5b80634ee2270c1161016257806367111a131161013c57806367111a13146102a65780636fcf9b3f146102b9578063780e5a4e146102cc57600080fd5b80634ee2270c1461024e57806358cc49e71461025657806363840f5c1461028157600080fd5b80631e044d3f116101935780631e044d3f146102085780632e4def9a1461021b5780634aa6a1931461022e57600080fd5b80631058f47d146101ba57806316433e15146101cf578063192565cb146101f5575b600080fd5b6101cd6101c83660046126a6565b6103e4565b005b6101e26101dd36600461271b565b6104f8565b6040519081526020015b60405180910390f35b6101e261020336600461273d565b610529565b6101e261021636600461271b565b610554565b6101e261022936600461271b565b610570565b61024161023c366004612782565b61058c565b6040516101ec9190612894565b6009546101e2565b6101e26102643660046128ae565b805160208183018101805160018252928201919093012091525481565b61029461028f366004612782565b610694565b6040516101ec969594939291906128eb565b6101cd6102b43660046126a6565b611069565b6101cd6102c7366004612951565b611178565b6102df6102da3660046128ae565b6112a5565b6040516101ec91906129e3565b6101e26102fa36600461273d565b611315565b61031261030d366004612782565b611340565b6040516101ec9190612c84565b6102df61032d366004612782565b611cc1565b6101cd610340366004612dae565b611f84565b6101cd610353366004612e2d565b6120a6565b61036b610366366004612782565b6121cc565b6040516101ec959493929190612eac565b6101e261038a36600461271b565b612393565b6101cd61039d366004612efd565b6123af565b6101e26103b036600461271b565b61249d565b6102df6103c33660046128ae565b6124b9565b6102946103d63660046128ae565b6124cb565b6101e260095481565b6000848152602081905260408120549003610460576040517f08c379a000000000000000000000000000000000000000000000000000000000815260206004820152601160248201527f496e76616c696420626f76696e6520494400000000000000000000000000000060448201526064015b60405180910390fd5b60408051606081018252848152602080820185905281830184905260008781528082529283206008018054600181018255908452922081519192839260039091029091019081906104b19082612ff1565b50602082015160018201906104c69082612ff1565b506040918201516002909101556000958652600560209081529086208054600181018255908752952090940155505050565b6003602052816000526040600020818154811061051457600080fd5b90600052602060002001600091509150505481565b8151602081840181018051600882529282019185019190912091905280548290811061051457600080fd5b6005602052816000526040600020818154811061051457600080fd5b6002602052816000526040600020818154811061051457600080fd5b600081815260208181526040808320600501805482518185028101850190935280835260609492939192909184015b8282101561068957838290600052602060002090600202016040518060400160405290816000820180546105ee90612f4d565b80601f016020809104026020016040519081016040528092919081815260200182805461061a90612f4d565b80156106675780601f1061063c57610100808354040283529160200191610667565b820191906000526020600020905b81548152906001019060200180831161064a57829003601f168201915b50505050508152602001600182015481525050815260200190600101906105bb565b505050509050919050565b6000606060006060806060600080600089815260200190815260200160002060405180610140016040529081600082015481526020016001820180546106d990612f4d565b80601f016020809104026020016040519081016040528092919081815260200182805461070590612f4d565b80156107525780601f1061072757610100808354040283529160200191610752565b820191906000526020600020905b81548152906001019060200180831161073557829003601f168201915b505050505081526020016002820154815260200160038201805461077590612f4d565b80601f01602080910402602001604051908101604052809291908181526020018280546107a190612f4d565b80156107ee5780601f106107c3576101008083540402835291602001916107ee565b820191906000526020600020905b8154815290600101906020018083116107d157829003601f168201915b5050505050815260200160048201805461080790612f4d565b80601f016020809104026020016040519081016040528092919081815260200182805461083390612f4d565b80156108805780601f1061085557610100808354040283529160200191610880565b820191906000526020600020905b81548152906001019060200180831161086357829003601f168201915b5050505050815260200160058201805480602002602001604051908101604052809291908181526020016000905b8282101561097c57838290600052602060002090600202016040518060400160405290816000820180546108e190612f4d565b80601f016020809104026020016040519081016040528092919081815260200182805461090d90612f4d565b801561095a5780601f1061092f5761010080835404028352916020019161095a565b820191906000526020600020905b81548152906001019060200180831161093d57829003601f168201915b50505050508152602001600182015481525050815260200190600101906108ae565b50505050815260200160068201805480602002602001604051908101604052809291908181526020016000905b82821015610b0957838290600052602060002090600302016040518060600160405290816000820180546109dc90612f4d565b80601f0160208091040260200160405190810160405280929190818152602001828054610a0890612f4d565b8015610a555780601f10610a2a57610100808354040283529160200191610a55565b820191906000526020600020905b815481529060010190602001808311610a3857829003601f168201915b50505050508152602001600182018054610a6e90612f4d565b80601f0160208091040260200160405190810160405280929190818152602001828054610a9a90612f4d565b8015610ae75780601f10610abc57610100808354040283529160200191610ae7565b820191906000526020600020905b815481529060010190602001808311610aca57829003601f168201915b50505050508152602001600282015481525050815260200190600101906109a9565b50505050815260200160078201805480602002602001604051908101604052809291908181526020016000905b82821015610ca05783829060005260206000209060040201604051806080016040529081600082018054610b6990612f4d565b80601f0160208091040260200160405190810160405280929190818152602001828054610b9590612f4d565b8015610be25780601f10610bb757610100808354040283529160200191610be2565b820191906000526020600020905b815481529060010190602001808311610bc557829003601f168201915b50505050508152602001600182018054610bfb90612f4d565b80601f0160208091040260200160405190810160405280929190818152602001828054610c2790612f4d565b8015610c745780601f10610c4957610100808354040283529160200191610c74565b820191906000526020600020905b815481529060010190602001808311610c5757829003601f168201915b505050505081526020016002820154815260200160038201548152505081526020019060010190610b36565b50505050815260200160088201805480602002602001604051908101604052809291908181526020016000905b82821015610e2d5783829060005260206000209060030201604051806060016040529081600082018054610d0090612f4d565b80601f0160208091040260200160405190810160405280929190818152602001828054610d2c90612f4d565b8015610d795780601f10610d4e57610100808354040283529160200191610d79565b820191906000526020600020905b815481529060010190602001808311610d5c57829003601f168201915b50505050508152602001600182018054610d9290612f4d565b80601f0160208091040260200160405190810160405280929190818152602001828054610dbe90612f4d565b8015610e0b5780601f10610de057610100808354040283529160200191610e0b565b820191906000526020600020905b815481529060010190602001808311610dee57829003601f168201915b5050505050815260200160028201548152505081526020019060010190610ccd565b50505050815260200160098201805480602002602001604051908101604052809291908181526020016000905b82821015610fc45783829060005260206000209060040201604051806080016040529081600082018054610e8d90612f4d565b80601f0160208091040260200160405190810160405280929190818152602001828054610eb990612f4d565b8015610f065780601f10610edb57610100808354040283529160200191610f06565b820191906000526020600020905b815481529060010190602001808311610ee957829003601f168201915b5050505050815260200160018201548152602001600282018054610f2990612f4d565b80601f0160208091040260200160405190810160405280929190818152602001828054610f5590612f4d565b8015610fa25780601f10610f7757610100808354040283529160200191610fa2565b820191906000526020600020905b815481529060010190602001808311610f8557829003601f168201915b5050505050815260200160038201548152505081526020019060010190610e5a565b505050915250508051909150600003611039576040517f08c379a000000000000000000000000000000000000000000000000000000000815260206004820152601160248201527f496e76616c696420626f76696e652049440000000000000000000000000000006044820152606401610457565b8051602082015160408301516060840151608085015160a090950151939c929b5090995097509195509350915050565b60008481526020819052604081205490036110e0576040517f08c379a000000000000000000000000000000000000000000000000000000000815260206004820152601160248201527f496e76616c696420626f76696e652049440000000000000000000000000000006044820152606401610457565b60408051606081018252848152602080820185905281830184905260008781528082529283206006018054600181018255908452922081519192839260039091029091019081906111319082612ff1565b50602082015160018201906111469082612ff1565b506040918201516002909101556000958652600360209081529086208054600181018255908752952090940155505050565b6009805490600061118883613111565b90915550506009546000818152602081905260409020908155600181016111af8682612ff1565b5060028101849055600381016111c58482612ff1565b50600481016111d48382612ff1565b506009546001866040516111e89190613170565b90815260405190819003602001812091909155600954600a80546001810182556000919091527fc65a7bb8d6351c1cf70c95a316cc6a92839c986682d98bc35f958f4883f9d2a8015560079061123f908590613170565b9081526040519081900360209081018220600954815460018101835560009283529290912090910155600890611276908490613170565b908152604051602091819003820190206009548154600181018355600092835292909120909101555050505050565b60606008826040516112b79190613170565b908152604080519182900360209081018320805480830285018301909352828452919083018282801561130957602002820191906000526020600020905b8154815260200190600101908083116112f5575b50505050509050919050565b8151602081840181018051600782529282019185019190912091905280548290811061051457600080fd5b611396604051806101400160405280600081526020016060815260200160008152602001606081526020016060815260200160608152602001606081526020016060815260200160608152602001606081525090565b60008281526020818152604091829020825161014081019093528054835260018101805491928401916113c890612f4d565b80601f01602080910402602001604051908101604052809291908181526020018280546113f490612f4d565b80156114415780601f1061141657610100808354040283529160200191611441565b820191906000526020600020905b81548152906001019060200180831161142457829003601f168201915b505050505081526020016002820154815260200160038201805461146490612f4d565b80601f016020809104026020016040519081016040528092919081815260200182805461149090612f4d565b80156114dd5780601f106114b2576101008083540402835291602001916114dd565b820191906000526020600020905b8154815290600101906020018083116114c057829003601f168201915b505050505081526020016004820180546114f690612f4d565b80601f016020809104026020016040519081016040528092919081815260200182805461152290612f4d565b801561156f5780601f106115445761010080835404028352916020019161156f565b820191906000526020600020905b81548152906001019060200180831161155257829003601f168201915b5050505050815260200160058201805480602002602001604051908101604052809291908181526020016000905b8282101561166b57838290600052602060002090600202016040518060400160405290816000820180546115d090612f4d565b80601f01602080910402602001604051908101604052809291908181526020018280546115fc90612f4d565b80156116495780601f1061161e57610100808354040283529160200191611649565b820191906000526020600020905b81548152906001019060200180831161162c57829003601f168201915b505050505081526020016001820154815250508152602001906001019061159d565b50505050815260200160068201805480602002602001604051908101604052809291908181526020016000905b828210156117f857838290600052602060002090600302016040518060600160405290816000820180546116cb90612f4d565b80601f01602080910402602001604051908101604052809291908181526020018280546116f790612f4d565b80156117445780601f1061171957610100808354040283529160200191611744565b820191906000526020600020905b81548152906001019060200180831161172757829003601f168201915b5050505050815260200160018201805461175d90612f4d565b80601f016020809104026020016040519081016040528092919081815260200182805461178990612f4d565b80156117d65780601f106117ab576101008083540402835291602001916117d6565b820191906000526020600020905b8154815290600101906020018083116117b957829003601f168201915b5050505050815260200160028201548152505081526020019060010190611698565b50505050815260200160078201805480602002602001604051908101604052809291908181526020016000905b8282101561198f578382906000526020600020906004020160405180608001604052908160008201805461185890612f4d565b80601f016020809104026020016040519081016040528092919081815260200182805461188490612f4d565b80156118d15780601f106118a6576101008083540402835291602001916118d1565b820191906000526020600020905b8154815290600101906020018083116118b457829003601f168201915b505050505081526020016001820180546118ea90612f4d565b80601f016020809104026020016040519081016040528092919081815260200182805461191690612f4d565b80156119635780601f1061193857610100808354040283529160200191611963565b820191906000526020600020905b81548152906001019060200180831161194657829003601f168201915b505050505081526020016002820154815260200160038201548152505081526020019060010190611825565b50505050815260200160088201805480602002602001604051908101604052809291908181526020016000905b82821015611b1c57838290600052602060002090600302016040518060600160405290816000820180546119ef90612f4d565b80601f0160208091040260200160405190810160405280929190818152602001828054611a1b90612f4d565b8015611a685780601f10611a3d57610100808354040283529160200191611a68565b820191906000526020600020905b815481529060010190602001808311611a4b57829003601f168201915b50505050508152602001600182018054611a8190612f4d565b80601f0160208091040260200160405190810160405280929190818152602001828054611aad90612f4d565b8015611afa5780601f10611acf57610100808354040283529160200191611afa565b820191906000526020600020905b815481529060010190602001808311611add57829003601f168201915b50505050508152602001600282015481525050815260200190600101906119bc565b50505050815260200160098201805480602002602001604051908101604052809291908181526020016000905b82821015611cb35783829060005260206000209060040201604051806080016040529081600082018054611b7c90612f4d565b80601f0160208091040260200160405190810160405280929190818152602001828054611ba890612f4d565b8015611bf55780601f10611bca57610100808354040283529160200191611bf5565b820191906000526020600020905b815481529060010190602001808311611bd857829003601f168201915b5050505050815260200160018201548152602001600282018054611c1890612f4d565b80601f0160208091040260200160405190810160405280929190818152602001828054611c4490612f4d565b8015611c915780601f10611c6657610100808354040283529160200191611c91565b820191906000526020600020905b815481529060010190602001808311611c7457829003601f168201915b5050505050815260200160038201548152505081526020019060010190611b49565b505050915250909392505050565b600a5460609060009067ffffffffffffffff811115611ce257611ce26125cc565b604051908082528060200260200182016040528015611d0b578160200160208202803683370190505b5090506000805b600a54811015611f7b576000600a8281548110611d3157611d3161318c565b90600052602060002001549050611da960026000838152602001908152602001600020805480602002602001604051908101604052809291908181526020018280548015611d9e57602002820191906000526020600020905b815481526020019060010190808311611d8a575b505050505087612581565b80611e0f57506000818152600360209081526040918290208054835181840281018401909452808452611e0f9392830182828015611d9e5760200282019190600052602060002090815481526020019060010190808311611d8a57505050505087612581565b80611e7557506000818152600460209081526040918290208054835181840281018401909452808452611e759392830182828015611d9e5760200282019190600052602060002090815481526020019060010190808311611d8a57505050505087612581565b80611edb57506000818152600560209081526040918290208054835181840281018401909452808452611edb9392830182828015611d9e5760200282019190600052602060002090815481526020019060010190808311611d8a57505050505087612581565b80611f4157506000818152600660209081526040918290208054835181840281018401909452808452611f419392830182828015611d9e5760200282019190600052602060002090815481526020019060010190808311611d8a57505050505087612581565b15611f725780848481518110611f5957611f5961318c565b602090810291909101015282611f6e81613111565b9350505b50600101611d12565b50815292915050565b6000858152602081905260408120549003611ffb576040517f08c379a000000000000000000000000000000000000000000000000000000000815260206004820152601160248201527f496e76616c696420626f76696e652049440000000000000000000000000000006044820152606401610457565b6040805160808101825285815260208082018690528183018590526060820184905260008881528082529283206007018054600181018255908452922081519192839260049091029091019081906120539082612ff1565b50602082015160018201906120689082612ff1565b506040828101516002830155606090920151600390910155600096875260046020908152908720805460018101825590885296209095015550505050565b600085815260208190526040812054900361211d576040517f08c379a000000000000000000000000000000000000000000000000000000000815260206004820152601160248201527f496e76616c696420626f76696e652049440000000000000000000000000000006044820152606401610457565b6040805160808101825285815260208082018690528183018590526060820184905260008881528082529283206009018054600181018255908452922081519192839260049091029091019081906121759082612ff1565b5060208201516001820155604082015160028201906121949082612ff1565b506060919091015160039091015550600094855260066020908152604086208054600181018255908752952090940193909355505050565b600060208190529081526040902080546001820180549192916121ee90612f4d565b80601f016020809104026020016040519081016040528092919081815260200182805461221a90612f4d565b80156122675780601f1061223c57610100808354040283529160200191612267565b820191906000526020600020905b81548152906001019060200180831161224a57829003601f168201915b50505050509080600201549080600301805461228290612f4d565b80601f01602080910402602001604051908101604052809291908181526020018280546122ae90612f4d565b80156122fb5780601f106122d0576101008083540402835291602001916122fb565b820191906000526020600020905b8154815290600101906020018083116122de57829003601f168201915b50505050509080600401805461231090612f4d565b80601f016020809104026020016040519081016040528092919081815260200182805461233c90612f4d565b80156123895780601f1061235e57610100808354040283529160200191612389565b820191906000526020600020905b81548152906001019060200180831161236c57829003601f168201915b5050505050905085565b6006602052816000526040600020818154811061051457600080fd5b6000838152602081905260408120549003612426576040517f08c379a000000000000000000000000000000000000000000000000000000000815260206004820152601160248201527f496e76616c696420626f76696e652049440000000000000000000000000000006044820152606401610457565b604080518082018252838152602080820184905260008681528082529283206005018054600181018255908452922081519192839260029091029091019081906124709082612ff1565b50602091820151600191820155600095865260028252604086208054918201815586529420909301555050565b6004602052816000526040600020818154811061051457600080fd5b60606007826040516112b79190613170565b600060606000606080606060006001886040516124e89190613170565b908152602001604051809103902054905080600003612563576040517f08c379a000000000000000000000000000000000000000000000000000000000815260206004820152601360248201527f496e76616c696420626f76696e65206e616d65000000000000000000000000006044820152606401610457565b61256c81610694565b949d939c50919a509850965090945092505050565b6000805b83518110156125c057828482815181106125a1576125a161318c565b6020026020010151036125b85760019150506125c6565b600101612585565b50600090505b92915050565b7f4e487b7100000000000000000000000000000000000000000000000000000000600052604160045260246000fd5b600082601f83011261260c57600080fd5b813567ffffffffffffffff80821115612627576126276125cc565b604051601f83017fffffffffffffffffffffffffffffffffffffffffffffffffffffffffffffffe0908116603f0116810190828211818310171561266d5761266d6125cc565b8160405283815286602085880101111561268657600080fd5b836020870160208301376000602085830101528094505050505092915050565b600080600080608085870312156126bc57600080fd5b84359350602085013567ffffffffffffffff808211156126db57600080fd5b6126e7888389016125fb565b945060408701359150808211156126fd57600080fd5b5061270a878288016125fb565b949793965093946060013593505050565b6000806040838503121561272e57600080fd5b50508035926020909101359150565b6000806040838503121561275057600080fd5b823567ffffffffffffffff81111561276757600080fd5b612773858286016125fb565b95602094909401359450505050565b60006020828403121561279457600080fd5b5035919050565b60005b838110156127b657818101518382015260200161279e565b50506000910152565b600081518084526127d781602086016020860161279b565b601f017fffffffffffffffffffffffffffffffffffffffffffffffffffffffffffffffe0169290920160200192915050565b6000828251808552602080860195508081830284010181860160005b84811015612887577fffffffffffffffffffffffffffffffffffffffffffffffffffffffffffffffe0868403018952815160408151818652612869828701826127bf565b92870151958701959095525098840198925090830190600101612825565b5090979650505050505050565b6020815260006128a76020830184612809565b9392505050565b6000602082840312156128c057600080fd5b813567ffffffffffffffff8111156128d757600080fd5b6128e3848285016125fb565b949350505050565b86815260c06020820152600061290460c08301886127bf565b866040840152828103606084015261291c81876127bf565b9050828103608084015261293081866127bf565b905082810360a08401526129448185612809565b9998505050505050505050565b6000806000806080858703121561296757600080fd5b843567ffffffffffffffff8082111561297f57600080fd5b61298b888389016125fb565b95506020870135945060408701359150808211156129a857600080fd5b6129b4888389016125fb565b935060608701359150808211156129ca57600080fd5b506129d7878288016125fb565b91505092959194509250565b6020808252825182820181905260009190848201906040850190845b81811015612a1b578351835292840192918401916001016129ff565b50909695505050505050565b6000828251808552602080860195508081830284010181860160005b84811015612887577fffffffffffffffffffffffffffffffffffffffffffffffffffffffffffffffe0868403018952815160408151818652612a87828701826127bf565b92870151958701959095525098840198925090830190600101612a43565b6000828251808552602080860195508081830284010181860160005b84811015612887577fffffffffffffffffffffffffffffffffffffffffffffffffffffffffffffffe0868403018952815160608151818652612b05828701826127bf565b9150508582015185820387870152612b1d82826127bf565b60409384015196909301959095525098840198925090830190600101612ac1565b6000828251808552602080860195508081830284010181860160005b84811015612887577fffffffffffffffffffffffffffffffffffffffffffffffffffffffffffffffe0868403018952815160808151818652612b9e828701826127bf565b9150508582015185820387870152612bb682826127bf565b60408481015190880152606093840151939096019290925250509783019790830190600101612b5a565b6000828251808552602080860195508081830284010181860160005b84811015612887577fffffffffffffffffffffffffffffffffffffffffffffffffffffffffffffffe0868403018952815160808151818652612c40828701826127bf565b915050858201518686015260408083015186830382880152612c6283826127bf565b6060948501519790940196909652505098840198925090830190600101612bfc565b602081528151602082015260006020830151610140806040850152612cad6101608501836127bf565b91506040850151606085015260608501517fffffffffffffffffffffffffffffffffffffffffffffffffffffffffffffffe080868503016080870152612cf384836127bf565b935060808701519150808685030160a0870152612d1084836127bf565b935060a08701519150808685030160c0870152612d2d8483612a27565b935060c08701519150808685030160e0870152612d4a8483612aa5565b935060e08701519150610100818786030181880152612d698584612b3e565b945080880151925050610120818786030181880152612d888584612aa5565b908801518782039092018488015293509050612da48382612be0565b9695505050505050565b600080600080600060a08688031215612dc657600080fd5b85359450602086013567ffffffffffffffff80821115612de557600080fd5b612df189838a016125fb565b95506040880135915080821115612e0757600080fd5b50612e14888289016125fb565b9598949750949560608101359550608001359392505050565b600080600080600060a08688031215612e4557600080fd5b85359450602086013567ffffffffffffffff80821115612e6457600080fd5b612e7089838a016125fb565b9550604088013594506060880135915080821115612e8d57600080fd5b50612e9a888289016125fb565b95989497509295608001359392505050565b85815260a060208201526000612ec560a08301876127bf565b8560408401528281036060840152612edd81866127bf565b90508281036080840152612ef181856127bf565b98975050505050505050565b600080600060608486031215612f1257600080fd5b83359250602084013567ffffffffffffffff811115612f3057600080fd5b612f3c868287016125fb565b925050604084013590509250925092565b600281046001821680612f6157607f821691505b602082108103612f9a577f4e487b7100000000000000000000000000000000000000000000000000000000600052602260045260246000fd5b50919050565b601f821115612fec5760008160005260206000206020601f86010481016020861015612fc95750805b6020601f860104820191505b81811015612fe857828155600101612fd5565b5050505b505050565b815167ffffffffffffffff81111561300b5761300b6125cc565b61301f816130198454612f4d565b84612fa0565b602080601f831160018114613076576000841561303c5750858301515b60028086026008870290910a7fffffffffffffffffffffffffffffffffffffffffffffffffffffffffffffffff0419821617865550612fe8565b6000858152602081207fffffffffffffffffffffffffffffffffffffffffffffffffffffffffffffffe08616915b828110156130c3578886015182559484019460019091019084016130a4565b508582101561310157878501516008601f88160260020a7fffffffffffffffffffffffffffffffffffffffffffffffffffffffffffffffff04191681555b5050505050600202600101905550565b60007fffffffffffffffffffffffffffffffffffffffffffffffffffffffffffffffff8203613169577f4e487b7100000000000000000000000000000000000000000000000000000000600052601160045260246000fd5b5060010190565b6000825161318281846020870161279b565b9190910192915050565b7f4e487b7100000000000000000000000000000000000000000000000000000000600052603260045260246000fdfea264697066735822122066140d19e1c2cece15a76a8b83c030e2c1d0f9dba48893fffa17387b824e8c2764736f6c63430008170033",
  "immutableReferences": {},
  "source": "pragma solidity ^0.8.23;\n\ncontract BovineTracking {\n    struct Bovine {\n        uint id;\n        string name;\n        uint age;\n        string breed;\n        string location;\n        Vaccine[] vaccines;\n        Movement[] movements;\n        Feed[] feeds;\n        HealthExam[] healthExams;\n        AbattoirProcess[] abattoirProcesses;\n    }\n\n    struct Vaccine {\n        string name;\n        uint date;\n    }\n\n    struct Movement {\n        string fromLocation;\n        string toLocation;\n        uint date;\n    }\n\n    struct Feed {\n        string foodType;\n        string origin;\n        uint quantity;\n        uint date;\n    }\n\n    struct HealthExam {\n        string examType;\n        string result;\n        uint date;\n    }\n\n    struct AbattoirProcess {\n        string abattoir;\n        uint abattoirDate;\n        string processing;\n        uint date;\n    }\n\n    mapping(uint => Bovine) public bovinesById;\n    mapping(string => uint) public bovineIdByName;\n    mapping(uint => uint[]) public bovineVaccineDates;\n    mapping(uint => uint[]) public bovineMovementDates;\n    mapping(uint => uint[]) public bovineFeedDates;\n    mapping(uint => uint[]) public bovineHealthExamDates;\n    mapping(uint => uint[]) public bovineAbattoirProcessDates;\n    mapping(string => uint[]) public bovineIdsByBreed;\n    mapping(string => uint[]) public bovineIdsByLocation;\n\n    uint public totalBovines;\n    uint[] private bovineIds;\n\n    function addBovine(\n        string memory _name,\n        uint _age,\n        string memory _breed,\n        string memory _location\n    ) public {\n        totalBovines++;\n\n        Bovine storage newBovine = bovinesById[totalBovines];\n        newBovine.id = totalBovines;\n        newBovine.name = _name;\n        newBovine.age = _age;\n        newBovine.breed = _breed;\n        newBovine.location = _location;\n\n        bovineIdByName[_name] = totalBovines;\n        bovineIds.push(totalBovines);\n        bovineIdsByBreed[_breed].push(totalBovines);\n        bovineIdsByLocation[_location].push(totalBovines);\n    }\n\n    function addVaccine(\n        uint _bovineId,\n        string memory _name,\n        uint _date\n    ) public {\n        require(bovinesById[_bovineId].id != 0, \"Invalid bovine ID\");\n\n        Vaccine memory newVaccine = Vaccine(_name, _date);\n        bovinesById[_bovineId].vaccines.push(newVaccine);\n        bovineVaccineDates[_bovineId].push(_date);\n    }\n\n    function addMovement(\n        uint _bovineId,\n        string memory _fromLocation,\n        string memory _toLocation,\n        uint _date\n    ) public {\n        require(bovinesById[_bovineId].id != 0, \"Invalid bovine ID\");\n\n        Movement memory newMovement = Movement(\n            _fromLocation,\n            _toLocation,\n            _date\n        );\n\n        bovinesById[_bovineId].movements.push(newMovement);\n        bovineMovementDates[_bovineId].push(_date);\n    }\n\n    function addFeed(\n        uint _bovineId,\n        string memory _foodType,\n        string memory _origin,\n        uint _quantity,\n        uint _date\n    ) public {\n        require(bovinesById[_bovineId].id != 0, \"Invalid bovine ID\");\n\n        Feed memory newFeed = Feed(_foodType, _origin, _quantity, _date);\n        bovinesById[_bovineId].feeds.push(newFeed);\n        bovineFeedDates[_bovineId].push(_date);\n    }\n\n    function addHealthExam(\n        uint _bovineId,\n        string memory _examType,\n        string memory _result,\n        uint _date\n    ) public {\n        require(bovinesById[_bovineId].id != 0, \"Invalid bovine ID\");\n\n        HealthExam memory newHealthExam = HealthExam(_examType, _result, _date);\n        bovinesById[_bovineId].healthExams.push(newHealthExam);\n        bovineHealthExamDates[_bovineId].push(_date);\n    }\n\n    function addAbattoirProcess(\n        uint _bovineId,\n        string memory _abattoir,\n        uint _abattoirDate,\n        string memory _processing,\n        uint _date\n    ) public {\n        require(bovinesById[_bovineId].id != 0, \"Invalid bovine ID\");\n\n        AbattoirProcess memory newAbattoirProcess = AbattoirProcess(\n            _abattoir,\n            _abattoirDate,\n            _processing,\n            _date\n        );\n\n        bovinesById[_bovineId].abattoirProcesses.push(newAbattoirProcess);\n        bovineAbattoirProcessDates[_bovineId].push(_date);\n    }\n\n    function getBovineById(\n        uint _bovineId\n    )\n        public\n        view\n        returns (\n            uint,\n            string memory,\n            uint,\n            string memory,\n            string memory,\n            Vaccine[] memory\n        )\n    {\n        Bovine memory bovine = bovinesById[_bovineId];\n        require(bovine.id != 0, \"Invalid bovine ID\");\n\n        return (\n            bovine.id,\n            bovine.name,\n            bovine.age,\n            bovine.breed,\n            bovine.location,\n            bovine.vaccines\n        );\n    }\n\n    function getBovineByName(\n        string memory _name\n    )\n        public\n        view\n        returns (\n            uint,\n            string memory,\n            uint,\n            string memory,\n            string memory,\n            Vaccine[] memory\n        )\n    {\n        uint bovineId = bovineIdByName[_name];\n        require(bovineId != 0, \"Invalid bovine name\");\n\n        return getBovineById(bovineId);\n    }\n\n    function getBovinesByDate(uint _date) public view returns (uint[] memory) {\n        uint[] memory matchingBovineIds = new uint[](bovineIds.length);\n        uint count = 0;\n\n        for (uint i = 0; i < bovineIds.length; i++) {\n            uint bovineId = bovineIds[i];\n            if (\n                arrayContains(bovineVaccineDates[bovineId], _date) ||\n                arrayContains(bovineMovementDates[bovineId], _date) ||\n                arrayContains(bovineFeedDates[bovineId], _date) ||\n                arrayContains(bovineHealthExamDates[bovineId], _date) ||\n                arrayContains(bovineAbattoirProcessDates[bovineId], _date)\n            ) {\n                matchingBovineIds[count] = bovineId;\n                count++;\n            }\n        }\n\n        assembly {\n            mstore(matchingBovineIds, count)\n        }\n\n        return matchingBovineIds;\n    }\n\n    function arrayContains(\n        uint[] memory arr,\n        uint value\n    ) internal pure returns (bool) {\n        for (uint i = 0; i < arr.length; i++) {\n            if (arr[i] == value) {\n                return true;\n            }\n        }\n\n        return false;\n    }\n\n    function getBovinesByBreed(\n        string memory _breed\n    ) public view returns (uint[] memory) {\n        return bovineIdsByBreed[_breed];\n    }\n\n    function getBovinesByLocation(\n        string memory _location\n    ) public view returns (uint[] memory) {\n        return bovineIdsByLocation[_location];\n    }\n\n    function getTotalBovineCount() public view returns (uint) {\n        return totalBovines;\n    }\n\n    function getVaccines(\n        uint _bovineId\n    ) public view returns (Vaccine[] memory) {\n        return bovinesById[_bovineId].vaccines;\n    }\n\n    function getBovine(uint id) public view returns (Bovine memory) {\n        return bovinesById[id];\n    }\n}\n",
  "sourcePath": "/Users/enriquesouzasoares/projects/ranch_ledger/contracts/BovineTracking.sol",
  "compiler": {
    "name": "solc",
    "version": "0.8.23+commit.f704f362.Emscripten.clang"
  },
  "schemaVersion": "3.4.16",
  "updatedAt": "2024-01-02T19:26:03.189Z",
  "networkType": "ethereum",
  "devdoc": {
    "kind": "dev",
    "methods": {},
    "version": 1
  },
  "userdoc": {
    "kind": "user",
    "methods": {},
    "version": 1
  }
}